{
  "address": "0x5FbDB2315678afecb367f032d93F642f64180aa3",
  "abi": [
    {
      "inputs": [
        {
          "internalType": "uint256",
          "name": "_lockTime",
          "type": "uint256"
        }
      ],
      "stateMutability": "nonpayable",
      "type": "constructor"
    },
    {
      "inputs": [],
      "name": "fund",
      "outputs": [],
      "stateMutability": "payable",
      "type": "function"
    },
    {
      "inputs": [
        {
          "internalType": "address",
          "name": "",
          "type": "address"
        }
      ],
      "name": "fundersToAmount",
      "outputs": [
        {
          "internalType": "uint256",
          "name": "",
          "type": "uint256"
        }
      ],
      "stateMutability": "view",
      "type": "function"
    },
    {
      "inputs": [],
      "name": "getChainlinkDataFeedLatestAnswer",
      "outputs": [
        {
          "internalType": "int256",
          "name": "",
          "type": "int256"
        }
      ],
      "stateMutability": "view",
      "type": "function"
    },
    {
      "inputs": [],
      "name": "getFund",
      "outputs": [],
      "stateMutability": "nonpayable",
      "type": "function"
    },
    {
      "inputs": [],
      "name": "getFundSuccess",
      "outputs": [
        {
          "internalType": "bool",
          "name": "",
          "type": "bool"
        }
      ],
      "stateMutability": "view",
      "type": "function"
    },
    {
      "inputs": [],
      "name": "owner",
      "outputs": [
        {
          "internalType": "address",
          "name": "",
          "type": "address"
        }
      ],
      "stateMutability": "view",
      "type": "function"
    },
    {
      "inputs": [],
      "name": "refund",
      "outputs": [],
      "stateMutability": "nonpayable",
      "type": "function"
    },
    {
      "inputs": [
        {
          "internalType": "address",
          "name": "_erc20Addr",
          "type": "address"
        }
      ],
      "name": "setErc20Addr",
      "outputs": [],
      "stateMutability": "nonpayable",
      "type": "function"
    },
    {
      "inputs": [
        {
          "internalType": "address",
          "name": "funder",
          "type": "address"
        },
        {
          "internalType": "uint256",
          "name": "amountToUpdate",
          "type": "uint256"
        }
      ],
      "name": "setFunderToAmount",
      "outputs": [],
      "stateMutability": "nonpayable",
      "type": "function"
    },
    {
      "inputs": [
        {
          "internalType": "address",
          "name": "newOwner",
          "type": "address"
        }
      ],
      "name": "transferOwnership",
      "outputs": [],
      "stateMutability": "nonpayable",
      "type": "function"
    }
  ],
  "transactionHash": "0x20fac3820c802ac813d92f09692e3ecaf7ec7571b92f3a623eee46b1709c0e21",
  "args": [
    180
  ],
  "numDeployments": 1,
  "solcInputHash": "20ff63ebe72d8ee4def3754a5c62f964",
  "bytecode": "0x60806040526000600560146101000a81548160ff02191690831515021790555034801561002b57600080fd5b5060405161144b38038061144b833981810160405281019061004d9190610132565b73694aa1769357215de4fac081bf1f309adc325306600160006101000a81548173ffffffffffffffffffffffffffffffffffffffff021916908373ffffffffffffffffffffffffffffffffffffffff16021790555033600260006101000a81548173ffffffffffffffffffffffffffffffffffffffff021916908373ffffffffffffffffffffffffffffffffffffffff16021790555042600381905550806004819055505061015f565b600080fd5b6000819050919050565b61010f816100fc565b811461011a57600080fd5b50565b60008151905061012c81610106565b92915050565b600060208284031215610148576101476100f7565b5b60006101568482850161011d565b91505092915050565b6112dd8061016e6000396000f3fe6080604052600436106100915760003560e01c8063b60d428811610059578063b60d428814610155578063bea4dfb51461015f578063d39cf0061461018a578063da4658e0146101b3578063f2fde38b146101de57610091565b806313ffff0114610096578063590e1ae3146100bf5780638da5cb5b146100d65780638edd6eb6146101015780639f883a0514610118575b600080fd5b3480156100a257600080fd5b506100bd60048036038101906100b89190610b40565b610207565b005b3480156100cb57600080fd5b506100d46102db565b005b3480156100e257600080fd5b506100eb610534565b6040516100f89190610b7c565b60405180910390f35b34801561010d57600080fd5b5061011661055a565b005b34801561012457600080fd5b5061013f600480360381019061013a9190610b40565b6107a0565b60405161014c9190610bb0565b60405180910390f35b61015d6107b8565b005b34801561016b57600080fd5b5061017461084e565b6040516101819190610be4565b60405180910390f35b34801561019657600080fd5b506101b160048036038101906101ac9190610c2b565b6108ef565b005b3480156101bf57600080fd5b506101c86109c6565b6040516101d59190610c86565b60405180910390f35b3480156101ea57600080fd5b5061020560048036038101906102009190610b40565b6109d9565b005b600260009054906101000a900473ffffffffffffffffffffffffffffffffffffffff1673ffffffffffffffffffffffffffffffffffffffff163373ffffffffffffffffffffffffffffffffffffffff1614610297576040517f08c379a000000000000000000000000000000000000000000000000000000000815260040161028e90610d24565b60405180910390fd5b80600560006101000a81548173ffffffffffffffffffffffffffffffffffffffff021916908373ffffffffffffffffffffffffffffffffffffffff16021790555050565b6004546003546102eb9190610d73565b42101561032d576040517f08c379a000000000000000000000000000000000000000000000000000000000815260040161032490610df3565b60405180910390fd5b683635c9adc5dea0000061034047610aad565b10610380576040517f08c379a000000000000000000000000000000000000000000000000000000000815260040161037790610e5f565b60405180910390fd5b60008060003373ffffffffffffffffffffffffffffffffffffffff1673ffffffffffffffffffffffffffffffffffffffff1681526020019081526020016000205403610401576040517f08c379a00000000000000000000000000000000000000000000000000000000081526004016103f890610ecb565b60405180910390fd5b60003373ffffffffffffffffffffffffffffffffffffffff166000803373ffffffffffffffffffffffffffffffffffffffff1673ffffffffffffffffffffffffffffffffffffffff1681526020019081526020016000205460405161046590610f1c565b60006040518083038185875af1925050503d80600081146104a2576040519150601f19603f3d011682016040523d82523d6000602084013e6104a7565b606091505b505080915050806104ed576040517f08c379a00000000000000000000000000000000000000000000000000000000081526004016104e490610f7d565b60405180910390fd5b60008060003373ffffffffffffffffffffffffffffffffffffffff1673ffffffffffffffffffffffffffffffffffffffff1681526020019081526020016000208190555050565b600260009054906101000a900473ffffffffffffffffffffffffffffffffffffffff1681565b60045460035461056a9190610d73565b4210156105ac576040517f08c379a00000000000000000000000000000000000000000000000000000000081526004016105a390610df3565b60405180910390fd5b600260009054906101000a900473ffffffffffffffffffffffffffffffffffffffff1673ffffffffffffffffffffffffffffffffffffffff163373ffffffffffffffffffffffffffffffffffffffff161461063c576040517f08c379a000000000000000000000000000000000000000000000000000000000815260040161063390610d24565b60405180910390fd5b683635c9adc5dea0000061064f47610aad565b1015610690576040517f08c379a000000000000000000000000000000000000000000000000000000000815260040161068790610fe9565b60405180910390fd5b60003373ffffffffffffffffffffffffffffffffffffffff16476040516106b690610f1c565b60006040518083038185875af1925050503d80600081146106f3576040519150601f19603f3d011682016040523d82523d6000602084013e6106f8565b606091505b5050809150508061073e576040517f08c379a000000000000000000000000000000000000000000000000000000000815260040161073590610f7d565b60405180910390fd5b60008060003373ffffffffffffffffffffffffffffffffffffffff1673ffffffffffffffffffffffffffffffffffffffff168152602001908152602001600020819055506001600560146101000a81548160ff02191690831515021790555050565b60006020528060005260406000206000915090505481565b6004546003546107c89190610d73565b4210610809576040517f08c379a000000000000000000000000000000000000000000000000000000000815260040161080090611055565b60405180910390fd5b346000803373ffffffffffffffffffffffffffffffffffffffff1673ffffffffffffffffffffffffffffffffffffffff16815260200190815260200160002081905550565b600080600160009054906101000a900473ffffffffffffffffffffffffffffffffffffffff1673ffffffffffffffffffffffffffffffffffffffff1663feaf968c6040518163ffffffff1660e01b815260040160a060405180830381865afa1580156108be573d6000803e3d6000fd5b505050506040513d601f19601f820116820180604052508101906108e291906110f8565b5050509150508091505090565b600560009054906101000a900473ffffffffffffffffffffffffffffffffffffffff1673ffffffffffffffffffffffffffffffffffffffff163373ffffffffffffffffffffffffffffffffffffffff161461097f576040517f08c379a0000000000000000000000000000000000000000000000000000000008152600401610976906111e5565b60405180910390fd5b806000808473ffffffffffffffffffffffffffffffffffffffff1673ffffffffffffffffffffffffffffffffffffffff168152602001908152602001600020819055505050565b600560149054906101000a900460ff1681565b600260009054906101000a900473ffffffffffffffffffffffffffffffffffffffff1673ffffffffffffffffffffffffffffffffffffffff163373ffffffffffffffffffffffffffffffffffffffff1614610a69576040517f08c379a0000000000000000000000000000000000000000000000000000000008152600401610a6090610d24565b60405180910390fd5b80600260006101000a81548173ffffffffffffffffffffffffffffffffffffffff021916908373ffffffffffffffffffffffffffffffffffffffff16021790555050565b600080610ab861084e565b90506305f5e1008184610acb9190611205565b610ad59190611276565b915050919050565b600080fd5b600073ffffffffffffffffffffffffffffffffffffffff82169050919050565b6000610b0d82610ae2565b9050919050565b610b1d81610b02565b8114610b2857600080fd5b50565b600081359050610b3a81610b14565b92915050565b600060208284031215610b5657610b55610add565b5b6000610b6484828501610b2b565b91505092915050565b610b7681610b02565b82525050565b6000602082019050610b916000830184610b6d565b92915050565b6000819050919050565b610baa81610b97565b82525050565b6000602082019050610bc56000830184610ba1565b92915050565b6000819050919050565b610bde81610bcb565b82525050565b6000602082019050610bf96000830184610bd5565b92915050565b610c0881610b97565b8114610c1357600080fd5b50565b600081359050610c2581610bff565b92915050565b60008060408385031215610c4257610c41610add565b5b6000610c5085828601610b2b565b9250506020610c6185828601610c16565b9150509250929050565b60008115159050919050565b610c8081610c6b565b82525050565b6000602082019050610c9b6000830184610c77565b92915050565b600082825260208201905092915050565b7f746869732066756e6374696f6e2063616e206f6e6c792062652063616c6c656460008201527f206279206f776e65720000000000000000000000000000000000000000000000602082015250565b6000610d0e602983610ca1565b9150610d1982610cb2565b604082019050919050565b60006020820190508181036000830152610d3d81610d01565b9050919050565b7f4e487b7100000000000000000000000000000000000000000000000000000000600052601160045260246000fd5b6000610d7e82610b97565b9150610d8983610b97565b9250828201905080821115610da157610da0610d44565b5b92915050565b7f77696e646f77206973206e6f7420636c6f736564000000000000000000000000600082015250565b6000610ddd601483610ca1565b9150610de882610da7565b602082019050919050565b60006020820190508181036000830152610e0c81610dd0565b9050919050565b7f5461726765742069732072656163686564000000000000000000000000000000600082015250565b6000610e49601183610ca1565b9150610e5482610e13565b602082019050919050565b60006020820190508181036000830152610e7881610e3c565b9050919050565b7f7468657265206973206e6f2066756e6420666f7220796f750000000000000000600082015250565b6000610eb5601883610ca1565b9150610ec082610e7f565b602082019050919050565b60006020820190508181036000830152610ee481610ea8565b9050919050565b600081905092915050565b50565b6000610f06600083610eeb565b9150610f1182610ef6565b600082019050919050565b6000610f2782610ef9565b9150819050919050565b7f7472616e73666572207478206661696c65640000000000000000000000000000600082015250565b6000610f67601283610ca1565b9150610f7282610f31565b602082019050919050565b60006020820190508181036000830152610f9681610f5a565b9050919050565b7f546172676574206973206e6f7420726561636865640000000000000000000000600082015250565b6000610fd3601583610ca1565b9150610fde82610f9d565b602082019050919050565b6000602082019050818103600083015261100281610fc6565b9050919050565b7f77696e646f7720697320636c6f73656400000000000000000000000000000000600082015250565b600061103f601083610ca1565b915061104a82611009565b602082019050919050565b6000602082019050818103600083015261106e81611032565b9050919050565b600069ffffffffffffffffffff82169050919050565b61109481611075565b811461109f57600080fd5b50565b6000815190506110b18161108b565b92915050565b6110c081610bcb565b81146110cb57600080fd5b50565b6000815190506110dd816110b7565b92915050565b6000815190506110f281610bff565b92915050565b600080600080600060a0868803121561111457611113610add565b5b6000611122888289016110a2565b9550506020611133888289016110ce565b9450506040611144888289016110e3565b9350506060611155888289016110e3565b9250506080611166888289016110a2565b9150509295509295909350565b7f796f7520646f206e6f742068617665207065726d697373696f6e20746f20636160008201527f6c6c20746869732066756e74696f6e0000000000000000000000000000000000602082015250565b60006111cf602f83610ca1565b91506111da82611173565b604082019050919050565b600060208201905081810360008301526111fe816111c2565b9050919050565b600061121082610b97565b915061121b83610b97565b925082820261122981610b97565b915082820484148315176112405761123f610d44565b5b5092915050565b7f4e487b7100000000000000000000000000000000000000000000000000000000600052601260045260246000fd5b600061128182610b97565b915061128c83610b97565b92508261129c5761129b611247565b5b82820490509291505056fea2646970667358221220d19397eb841c181cfdb008c7b759689f0fa19744cae9eb5fdf069f59ddd5e27164736f6c634300081b0033",
  "devdoc": {
    "kind": "dev",
    "methods": {},
    "version": 1
  },
  "userdoc": {
    "kind": "user",
    "methods": {},
    "version": 1
  },
  "storageLayout": {
    "storage": [
      {
        "astId": 53,
        "contract": "contracts/FundMe.sol:FundMe",
        "label": "fundersToAmount",
        "offset": 0,
        "slot": "0",
        "type": "t_mapping(t_address,t_uint256)"
      },
      {
        "astId": 63,
        "contract": "contracts/FundMe.sol:FundMe",
        "label": "dataFeed",
        "offset": 0,
        "slot": "1",
        "type": "t_contract(AggregatorV3Interface)45"
      },
      {
        "astId": 72,
        "contract": "contracts/FundMe.sol:FundMe",
        "label": "owner",
        "offset": 0,
        "slot": "2",
        "type": "t_address"
      },
      {
        "astId": 74,
        "contract": "contracts/FundMe.sol:FundMe",
        "label": "deploymentTimestamp",
        "offset": 0,
        "slot": "3",
        "type": "t_uint256"
      },
      {
        "astId": 76,
        "contract": "contracts/FundMe.sol:FundMe",
        "label": "lockTime",
        "offset": 0,
        "slot": "4",
        "type": "t_uint256"
      },
      {
        "astId": 78,
        "contract": "contracts/FundMe.sol:FundMe",
        "label": "erc20Addr",
        "offset": 0,
        "slot": "5",
        "type": "t_address"
      },
      {
        "astId": 81,
        "contract": "contracts/FundMe.sol:FundMe",
        "label": "getFundSuccess",
        "offset": 20,
        "slot": "5",
        "type": "t_bool"
      }
    ],
    "types": {
      "t_address": {
        "encoding": "inplace",
        "label": "address",
        "numberOfBytes": "20"
      },
      "t_bool": {
        "encoding": "inplace",
        "label": "bool",
        "numberOfBytes": "1"
      },
      "t_contract(AggregatorV3Interface)45": {
        "encoding": "inplace",
        "label": "contract AggregatorV3Interface",
        "numberOfBytes": "20"
      },
      "t_mapping(t_address,t_uint256)": {
        "encoding": "mapping",
        "key": "t_address",
        "label": "mapping(address => uint256)",
        "numberOfBytes": "32",
        "value": "t_uint256"
      },
      "t_uint256": {
        "encoding": "inplace",
        "label": "uint256",
        "numberOfBytes": "32"
      }
    }
  }
}